{
  "contractName": "DethSwitch",
  "abi": [
    {
      "constant": true,
      "inputs": [],
      "name": "getcontractName",
      "outputs": [
        {
          "name": "_name",
          "type": "string"
        }
      ],
      "payable": false,
      "stateMutability": "view",
      "type": "function"
    },
    {
      "constant": true,
      "inputs": [],
      "name": "getHeir",
      "outputs": [
        {
          "name": "_heir",
          "type": "address"
        }
      ],
      "payable": false,
      "stateMutability": "view",
      "type": "function"
    },
    {
      "constant": false,
      "inputs": [
        {
          "name": "_tokenAddr",
          "type": "address"
        }
      ],
      "name": "withdraw",
      "outputs": [
        {
          "name": "success",
          "type": "bool"
        }
      ],
      "payable": false,
      "stateMutability": "nonpayable",
      "type": "function"
    },
    {
      "constant": false,
      "inputs": [
        {
          "name": "_timeTillExpiration",
          "type": "uint256"
        }
      ],
      "name": "extendExpirationTimeByParent",
      "outputs": [
        {
          "name": "_expirationTime",
          "type": "uint256"
        }
      ],
      "payable": false,
      "stateMutability": "nonpayable",
      "type": "function"
    },
    {
      "constant": true,
      "inputs": [],
      "name": "contractName",
      "outputs": [
        {
          "name": "",
          "type": "string"
        }
      ],
      "payable": false,
      "stateMutability": "view",
      "type": "function"
    },
    {
      "constant": true,
      "inputs": [],
      "name": "getParent",
      "outputs": [
        {
          "name": "_parent",
          "type": "address"
        }
      ],
      "payable": false,
      "stateMutability": "view",
      "type": "function"
    },
    {
      "constant": true,
      "inputs": [],
      "name": "getExpirationTime",
      "outputs": [
        {
          "name": "_expiratonTime",
          "type": "uint256"
        }
      ],
      "payable": false,
      "stateMutability": "view",
      "type": "function"
    },
    {
      "constant": true,
      "inputs": [
        {
          "name": "_tokenAddr",
          "type": "address"
        }
      ],
      "name": "getAllowance",
      "outputs": [
        {
          "name": "amount",
          "type": "uint256"
        }
      ],
      "payable": false,
      "stateMutability": "view",
      "type": "function"
    },
    {
      "inputs": [
        {
          "name": "_parent",
          "type": "address"
        },
        {
          "name": "_heir",
          "type": "address"
        },
        {
          "name": "_contractName",
          "type": "string"
        },
        {
          "name": "_timeTillExpiration",
          "type": "uint256"
        }
      ],
      "payable": false,
      "stateMutability": "nonpayable",
      "type": "constructor"
    }
  ],
  "bytecode": "0x6060604052341561000f57600080fd5b604051610b5e380380610b5e8339810160405280805190602001909190805190602001909190805182019190602001805190602001909190505080620151808102905084600160006101000a81548173ffffffffffffffffffffffffffffffffffffffff021916908373ffffffffffffffffffffffffffffffffffffffff16021790555083600260006101000a81548173ffffffffffffffffffffffffffffffffffffffff021916908373ffffffffffffffffffffffffffffffffffffffff16021790555082600090805190602001906100ea929190610179565b50610107826101176401000000000261088f176401000000009004565b600381905550505050505061021e565b6000816201518081029050826312cc030081111580156101595750427fffffffffffffffffffffffffffffffffffffffffffffffffffffffffffffffff038111155b151561016457600080fd5b83420160038190555060035492505050919050565b828054600181600116156101000203166002900490600052602060002090601f016020900481019282601f106101ba57805160ff19168380011785556101e8565b828001600101855582156101e8579182015b828111156101e75782518255916020019190600101906101cc565b5b5090506101f591906101f9565b5090565b61021b91905b808211156102175760008160009055506001016101ff565b5090565b90565b6109318061022d6000396000f30060606040526004361061008e576000357c0100000000000000000000000000000000000000000000000000000000900463ffffffff16806306ae674b1461009357806341e16e7d1461012157806351cff8d91461017657806361078152146101c757806375d0c0dc146101fe57806380f760211461028c578063e23a845a146102e1578063eb5a662e1461030a575b600080fd5b341561009e57600080fd5b6100a6610357565b6040518080602001828103825283818151815260200191508051906020019080838360005b838110156100e65780820151818401526020810190506100cb565b50505050905090810190601f1680156101135780820380516001836020036101000a031916815260200191505b509250505060405180910390f35b341561012c57600080fd5b6101346103ff565b604051808273ffffffffffffffffffffffffffffffffffffffff1673ffffffffffffffffffffffffffffffffffffffff16815260200191505060405180910390f35b341561018157600080fd5b6101ad600480803573ffffffffffffffffffffffffffffffffffffffff16906020019091905050610429565b604051808215151515815260200191505060405180910390f35b34156101d257600080fd5b6101e86004808035906020019091905050610505565b6040518082815260200191505060405180910390f35b341561020957600080fd5b61021161057c565b6040518080602001828103825283818151815260200191508051906020019080838360005b83811015610251578082015181840152602081019050610236565b50505050905090810190601f16801561027e5780820380516001836020036101000a031916815260200191505b509250505060405180910390f35b341561029757600080fd5b61029f61061a565b604051808273ffffffffffffffffffffffffffffffffffffffff1673ffffffffffffffffffffffffffffffffffffffff16815260200191505060405180910390f35b34156102ec57600080fd5b6102f4610644565b6040518082815260200191505060405180910390f35b341561031557600080fd5b610341600480803573ffffffffffffffffffffffffffffffffffffffff1690602001909190505061064e565b6040518082815260200191505060405180910390f35b61035f6108f1565b60008054600181600116156101000203166002900480601f0160208091040260200160405190810160405280929190818152602001828054600181600116156101000203166002900480156103f55780601f106103ca576101008083540402835291602001916103f5565b820191906000526020600020905b8154815290600101906020018083116103d857829003601f168201915b5050505050905090565b6000600260009054906101000a900473ffffffffffffffffffffffffffffffffffffffff16905090565b600080600260009054906101000a900473ffffffffffffffffffffffffffffffffffffffff1673ffffffffffffffffffffffffffffffffffffffff163373ffffffffffffffffffffffffffffffffffffffff1614151561048857600080fd5b600354421015151561049957600080fd5b6104a28361064e565b905060008111156104ff576104fd600160009054906101000a900473ffffffffffffffffffffffffffffffffffffffff16600260009054906101000a900473ffffffffffffffffffffffffffffffffffffffff168386610773565b505b50919050565b6000600160009054906101000a900473ffffffffffffffffffffffffffffffffffffffff1673ffffffffffffffffffffffffffffffffffffffff163373ffffffffffffffffffffffffffffffffffffffff1614151561056357600080fd5b61056c8261088f565b6003819055506003549050919050565b60008054600181600116156101000203166002900480601f0160208091040260200160405190810160405280929190818152602001828054600181600116156101000203166002900480156106125780601f106105e757610100808354040283529160200191610612565b820191906000526020600020905b8154815290600101906020018083116105f557829003601f168201915b505050505081565b6000600160009054906101000a900473ffffffffffffffffffffffffffffffffffffffff16905090565b6000600354905090565b6000808290508073ffffffffffffffffffffffffffffffffffffffff1663dd62ed3e600160009054906101000a900473ffffffffffffffffffffffffffffffffffffffff16306000604051602001526040518363ffffffff167c0100000000000000000000000000000000000000000000000000000000028152600401808373ffffffffffffffffffffffffffffffffffffffff1673ffffffffffffffffffffffffffffffffffffffff1681526020018273ffffffffffffffffffffffffffffffffffffffff1673ffffffffffffffffffffffffffffffffffffffff16815260200192505050602060405180830381600087803b151561074d57600080fd5b6102c65a03f1151561075e57600080fd5b50505060405180519050915081915050919050565b6000808290508073ffffffffffffffffffffffffffffffffffffffff166323b872dd8787876000604051602001526040518463ffffffff167c0100000000000000000000000000000000000000000000000000000000028152600401808473ffffffffffffffffffffffffffffffffffffffff1673ffffffffffffffffffffffffffffffffffffffff1681526020018373ffffffffffffffffffffffffffffffffffffffff1673ffffffffffffffffffffffffffffffffffffffff1681526020018281526020019350505050602060405180830381600087803b151561085857600080fd5b6102c65a03f1151561086957600080fd5b50505060405180519050156108815760019150610886565b600091505b50949350505050565b6000816201518081029050826312cc030081111580156108d15750427fffffffffffffffffffffffffffffffffffffffffffffffffffffffffffffffff038111155b15156108dc57600080fd5b83420160038190555060035492505050919050565b6020604051908101604052806000815250905600a165627a7a723058208067f0e7361c324506e8957606450fc91c2ab260839d62bc41e60c4b2cb4a5f30029",
  "source": "pragma solidity ^0.4.4;\r\n\r\ncontract ERC20Token {\r\n    // function definition of generic ERC20 token\r\n    // necessary for DethSwitch to be able to reference functions in another contract\r\n    function transferFrom(address _from, address _to, uint _value) returns (bool success) {}\r\n    function allowance(address _owner, address _spender) constant returns (uint256 remaining) {}\r\n}\r\n\r\ncontract DethSwitch {\r\n    \r\n    // TODO: make mapping that stores token addresses, heirs and values ?\r\n    // TODO: make check-in feature\r\n    // TODO: add getters for heir, parent\r\n\r\n    // Dame of this contract instance\r\n    string public contractName;\r\n\r\n    address parent;\r\n    address heir;\r\n    uint256 expirationTime;\r\n\r\n    modifier onlyParent() {\r\n        require(msg.sender == parent);\r\n        _;\r\n    }\r\n\r\n    modifier onlyHeir() {\r\n        require(msg.sender == heir);\r\n        _;\r\n    }\r\n\r\n    modifier onlyIfExpirationTimeExceeded() {\r\n        require(now >= expirationTime);\r\n        _;\r\n    }\r\n\r\n    modifier expirationTimeNoOverflow(uint256 _timeTillExpiration) {\r\n        //For now, maximum extension allowed is 10 years\r\n        //also have to check for integer overflow\r\n        require(_timeTillExpiration <= 10 years && _timeTillExpiration <= 2**256 - 1 - now);\r\n        _;\r\n    }\r\n\r\n    modifier convertTimeToSeconds(uint256 _time) {\r\n        _time *= 1 days;\r\n        _;\r\n    }\r\n\r\n    function DethSwitch(address _parent, address _heir, string _contractName, uint256 _timeTillExpiration) \r\n    convertTimeToSeconds(_timeTillExpiration)\r\n    {\r\n    /* \r\n    _parent = wallet address of parent\r\n    _heir = wallet address of heir\r\n    _contractName = nickname of this generated contract by _parent\r\n    _timeTillExpiration = expiration time in DAYS from block.timestamp\r\n    */\r\n        parent = _parent;\r\n        heir = _heir;\r\n        contractName = _contractName;\r\n        expirationTime = extendExpirationTime(_timeTillExpiration);\r\n    }\r\n\r\n    function extendExpirationTime(uint256 _timeTillExpiration) \r\n        internal\r\n        convertTimeToSeconds(_timeTillExpiration)\r\n        expirationTimeNoOverflow(_timeTillExpiration)\r\n        returns (uint256 _expirationTime)\r\n    {\r\n        expirationTime = now + _timeTillExpiration;\r\n        return expirationTime;\r\n    }\r\n\r\n    function extendExpirationTimeByParent(uint _timeTillExpiration) onlyParent returns (uint256 _expirationTime) {\r\n        //_timeTillExpiration will be converted to seconds by function modifier in extendExpirationTime()\r\n        expirationTime = extendExpirationTime(_timeTillExpiration);\r\n        return expirationTime;\r\n    }\r\n\r\n    function transferThrough(address _from, address _to, uint256 _value, address _tokenAddr) internal returns (bool success) {\r\n        // Calls transferFrom at specified token address\r\n        // Should only be able to be called by withdraw after verification\r\n        ERC20Token tok = ERC20Token(_tokenAddr);\r\n        if (tok.transferFrom(_from, _to, _value)) {\r\n            return true;\r\n        } else {\r\n            return false;\r\n        }\r\n    }\r\n\r\n    function getAllowance(address _tokenAddr) constant returns (uint256 amount) {\r\n        // Find how much this DethSwitch contract is allowed to send on behalf of parent\r\n        ERC20Token tok = ERC20Token(_tokenAddr);\r\n        amount = tok.allowance(parent, address(this));\r\n        return amount;\r\n    }\r\n\r\n    function withdraw(address _tokenAddr) onlyHeir onlyIfExpirationTimeExceeded returns (bool success) {\r\n        uint256 amount;\r\n        amount = getAllowance(_tokenAddr);\r\n        if (amount > 0) {\r\n            transferThrough(parent, heir, amount, _tokenAddr);\r\n        }\r\n    }\r\n\r\n    function getHeir() view returns (address _heir) {\r\n        return heir;\r\n    }\r\n\r\n    function getParent() view returns (address _parent) {\r\n        return parent;\r\n    }\r\n\r\n    function getcontractName() view returns (string _name) {\r\n        return contractName;\r\n    }\r\n\r\n    function getExpirationTime() view returns (uint256 _expiratonTime) {\r\n        return expirationTime;\r\n    }\r\n}\r\n\r\ncontract DethSwitchFactory {\r\n\r\n\r\n    mapping (address => address[]) public deployedContractsByParent;\r\n    mapping (address => address[]) public deployedContractsByHeir;\r\n\r\n    // Deploys new DethSwitch contract\r\n    function newDethSwitch(address _heir, string _contractName, uint _timeTillExpiration) returns (address addr) {\r\n        address newDethSwitchAddress;\r\n        newDethSwitchAddress = new DethSwitch(msg.sender, _heir, _contractName, _timeTillExpiration);\r\n        // Store contract information by owner and by heir\r\n        deployedContractsByParent[msg.sender].push(newDethSwitchAddress);\r\n        deployedContractsByHeir[_heir].push(newDethSwitchAddress);\r\n        return newDethSwitchAddress;\r\n    }\r\n\r\n    // Return number of contracts in struct array. Needed because can't return dynamic array\r\n    // Implementation feels clumsy though\r\n    function getNumberOfOwnedContracts() view returns (uint256 numContracts) {\r\n        return deployedContractsByParent[msg.sender].length;\r\n    }\r\n\r\n    function getNumberOfHeirContracts() view returns (uint256 numContracts) {\r\n        return deployedContractsByHeir[msg.sender].length;\r\n    }\r\n\r\n    function getOwnedContracts(uint256 contractIndex) view returns(address contractAddress) {\r\n        require(contractIndex < deployedContractsByParent[msg.sender].length);\r\n        return deployedContractsByParent[msg.sender][contractIndex];\r\n    }\r\n\r\n    function getHeirContracts(uint256 contractIndex) view returns(address contractAddress) {\r\n        require(contractIndex < deployedContractsByHeir[msg.sender].length);\r\n        return deployedContractsByHeir[msg.sender][contractIndex];\r\n    }\r\n\r\n}\r\n",
  "sourcePath": "/mnt/c/Users/howei/Desktop/Solidity/DethSwitch/contracts/DethSwitchFactory.sol",
  "compiler": {
    "name": "solc",
    "version": "0.4.18+commit.9cf6e910.Emscripten.clang"
  },
  "schemaVersion": "1.0.1",
  "updatedAt": "2017-12-06T16:57:40.263Z"
}