{
  "contractName": "DethSwitch",
  "abi": [
    {
      "constant": true,
      "inputs": [],
      "name": "getcontractName",
      "outputs": [
        {
          "name": "_name",
          "type": "string"
        }
      ],
      "payable": false,
      "stateMutability": "view",
      "type": "function"
    },
    {
      "constant": true,
      "inputs": [],
      "name": "getHeir",
      "outputs": [
        {
          "name": "_heir",
          "type": "address"
        }
      ],
      "payable": false,
      "stateMutability": "view",
      "type": "function"
    },
    {
      "constant": false,
      "inputs": [
        {
          "name": "_tokenAddr",
          "type": "address"
        }
      ],
      "name": "withdraw",
      "outputs": [
        {
          "name": "success",
          "type": "bool"
        }
      ],
      "payable": false,
      "stateMutability": "nonpayable",
      "type": "function"
    },
    {
      "constant": true,
      "inputs": [
        {
          "name": "_timeTillExpiration",
          "type": "uint256"
        }
      ],
      "name": "contractName",
      "outputs": [
        {
          "name": "",
          "type": "string"
        }
      ],
      "payable": false,
      "stateMutability": "view",
      "type": "function"
    },
    {
      "constant": true,
      "inputs": [],
      "name": "getParent",
      "outputs": [
        {
          "name": "_parent",
          "type": "address"
        }
      ],
      "payable": false,
      "stateMutability": "view",
      "type": "function"
    },
    {
      "constant": false,
      "inputs": [
        {
          "name": "_daysTillExpiration",
          "type": "uint256"
        }
      ],
      "name": "extendExpirationTime",
      "outputs": [
        {
          "name": "_expirationTime",
          "type": "uint256"
        }
      ],
      "payable": false,
      "stateMutability": "nonpayable",
      "type": "function"
    },
    {
      "constant": true,
      "inputs": [],
      "name": "getExpirationTime",
      "outputs": [
        {
          "name": "_expiratonTime",
          "type": "uint256"
        }
      ],
      "payable": false,
      "stateMutability": "view",
      "type": "function"
    },
    {
      "constant": true,
      "inputs": [
        {
          "name": "_tokenAddr",
          "type": "address"
        }
      ],
      "name": "getAllowance",
      "outputs": [
        {
          "name": "amount",
          "type": "uint256"
        }
      ],
      "payable": false,
      "stateMutability": "view",
      "type": "function"
    },
    {
      "inputs": [
        {
          "name": "_parent",
          "type": "address"
        },
        {
          "name": "_heir",
          "type": "address"
        },
        {
          "name": "_contractName",
          "type": "string"
        },
        {
          "name": "_daysTillExpiration",
          "type": "uint256"
        }
      ],
      "payable": false,
      "stateMutability": "nonpayable",
      "type": "constructor"
    }
  ],
  "bytecode": "0x606060405234156200001057600080fd5b60405162000cc838038062000cc88339810160405280805190602001909190805190602001909190805182019190602001805190602001909190505083600160006101000a81548173ffffffffffffffffffffffffffffffffffffffff021916908373ffffffffffffffffffffffffffffffffffffffff16021790555082600260006101000a81548173ffffffffffffffffffffffffffffffffffffffff021916908373ffffffffffffffffffffffffffffffffffffffff1602179055508160009080519060200190620000e6929190620001c7565b50620001068162000111640100000000026200097a176401000000009004565b505050505062000276565b6000808260006200013682620001b564010000000002620009f0176401000000009004565b90506312cc030081111580156200016f5750427fffffffffffffffffffffffffffffffffffffffffffffffffffffffffffffffff038111155b15156200017b57600080fd5b6200019a85620001b564010000000002620009f0176401000000009004565b92508242019350836003819055506003549350505050919050565b60006201518082029050809050919050565b828054600181600116156101000203166002900490600052602060002090601f016020900481019282601f106200020a57805160ff19168380011785556200023b565b828001600101855582156200023b579182015b828111156200023a5782518255916020019190600101906200021d565b5b5090506200024a91906200024e565b5090565b6200027391905b808211156200026f57600081600090555060010162000255565b5090565b90565b610a4280620002866000396000f30060606040526004361061008e576000357c0100000000000000000000000000000000000000000000000000000000900463ffffffff16806306ae674b1461009357806341e16e7d1461012157806351cff8d91461017657806375d0c0dc146101c757806380f7602114610255578063cb62575d146102aa578063e23a845a146102e1578063eb5a662e1461030a575b600080fd5b341561009e57600080fd5b6100a6610357565b6040518080602001828103825283818151815260200191508051906020019080838360005b838110156100e65780820151818401526020810190506100cb565b50505050905090810190601f1680156101135780820380516001836020036101000a031916815260200191505b509250505060405180910390f35b341561012c57600080fd5b6101346103ff565b604051808273ffffffffffffffffffffffffffffffffffffffff1673ffffffffffffffffffffffffffffffffffffffff16815260200191505060405180910390f35b341561018157600080fd5b6101ad600480803573ffffffffffffffffffffffffffffffffffffffff16906020019091905050610429565b604051808215151515815260200191505060405180910390f35b34156101d257600080fd5b6101da610505565b6040518080602001828103825283818151815260200191508051906020019080838360005b8381101561021a5780820151818401526020810190506101ff565b50505050905090810190601f1680156102475780820380516001836020036101000a031916815260200191505b509250505060405180910390f35b341561026057600080fd5b6102686105a3565b604051808273ffffffffffffffffffffffffffffffffffffffff1673ffffffffffffffffffffffffffffffffffffffff16815260200191505060405180910390f35b34156102b557600080fd5b6102cb60048080359060200190919050506105cd565b6040518082815260200191505060405180910390f35b34156102ec57600080fd5b6102f461063e565b6040518082815260200191505060405180910390f35b341561031557600080fd5b610341600480803573ffffffffffffffffffffffffffffffffffffffff16906020019091905050610648565b6040518082815260200191505060405180910390f35b61035f610a02565b60008054600181600116156101000203166002900480601f0160208091040260200160405190810160405280929190818152602001828054600181600116156101000203166002900480156103f55780601f106103ca576101008083540402835291602001916103f5565b820191906000526020600020905b8154815290600101906020018083116103d857829003601f168201915b5050505050905090565b6000600260009054906101000a900473ffffffffffffffffffffffffffffffffffffffff16905090565b600080600260009054906101000a900473ffffffffffffffffffffffffffffffffffffffff1673ffffffffffffffffffffffffffffffffffffffff163373ffffffffffffffffffffffffffffffffffffffff1614151561048857600080fd5b600354421015151561049957600080fd5b6104a283610648565b905060008111156104ff576104fd600160009054906101000a900473ffffffffffffffffffffffffffffffffffffffff16600260009054906101000a900473ffffffffffffffffffffffffffffffffffffffff16838661085e565b505b50919050565b60008054600181600116156101000203166002900480601f01602080910402602001604051908101604052809291908181526020018280546001816001161561010002031660029004801561059b5780601f106105705761010080835404028352916020019161059b565b820191906000526020600020905b81548152906001019060200180831161057e57829003601f168201915b505050505081565b6000600160009054906101000a900473ffffffffffffffffffffffffffffffffffffffff16905090565b6000600160009054906101000a900473ffffffffffffffffffffffffffffffffffffffff1673ffffffffffffffffffffffffffffffffffffffff163373ffffffffffffffffffffffffffffffffffffffff1614151561062b57600080fd5b6106348261097a565b9050809050919050565b6000600354905090565b60008060008391508173ffffffffffffffffffffffffffffffffffffffff1663dd62ed3e600160009054906101000a900473ffffffffffffffffffffffffffffffffffffffff16306000604051602001526040518363ffffffff167c0100000000000000000000000000000000000000000000000000000000028152600401808373ffffffffffffffffffffffffffffffffffffffff1673ffffffffffffffffffffffffffffffffffffffff1681526020018273ffffffffffffffffffffffffffffffffffffffff1673ffffffffffffffffffffffffffffffffffffffff16815260200192505050602060405180830381600087803b151561074957600080fd5b6102c65a03f1151561075a57600080fd5b5050506040518051905092508173ffffffffffffffffffffffffffffffffffffffff166370a08231600160009054906101000a900473ffffffffffffffffffffffffffffffffffffffff166000604051602001526040518263ffffffff167c0100000000000000000000000000000000000000000000000000000000028152600401808273ffffffffffffffffffffffffffffffffffffffff1673ffffffffffffffffffffffffffffffffffffffff168152602001915050602060405180830381600087803b151561082b57600080fd5b6102c65a03f1151561083c57600080fd5b50505060405180519050905080831115610854578092505b8292505050919050565b6000808290508073ffffffffffffffffffffffffffffffffffffffff166323b872dd8787876000604051602001526040518463ffffffff167c0100000000000000000000000000000000000000000000000000000000028152600401808473ffffffffffffffffffffffffffffffffffffffff1673ffffffffffffffffffffffffffffffffffffffff1681526020018373ffffffffffffffffffffffffffffffffffffffff1673ffffffffffffffffffffffffffffffffffffffff1681526020018281526020019350505050602060405180830381600087803b151561094357600080fd5b6102c65a03f1151561095457600080fd5b505050604051805190501561096c5760019150610971565b600091505b50949350505050565b600080826000610989826109f0565b90506312cc030081111580156109c15750427fffffffffffffffffffffffffffffffffffffffffffffffffffffffffffffffff038111155b15156109cc57600080fd5b6109d5856109f0565b92508242019350836003819055506003549350505050919050565b60006201518082029050809050919050565b6020604051908101604052806000815250905600a165627a7a72305820d03b7c11fcb06739849c022b1c6f5c606481ee2551a5fc6ccdcc11cdc90205fb0029",
  "source": "pragma solidity ^0.4.4;\r\n\r\ncontract ERC20Token {\r\n    // function definition of generic ERC20 token\r\n    // necessary for DethSwitch to be able to reference functions in another contract\r\n    function transferFrom(address _from, address _to, uint _value) returns (bool success) {}\r\n    function allowance(address _owner, address _spender) constant returns (uint256 remaining) {}\r\n    function balanceOf(address _owner) constant returns (uint256 balance) {}\r\n}\r\n\r\ncontract DethSwitch {\r\n    \r\n    // TODO: make mapping that stores token addresses, heirs and values ?\r\n    // TODO: make check-in feature\r\n    // TODO: add getters for heir, parent\r\n\r\n    // Dame of this contract instance\r\n    string public contractName;\r\n\r\n    address parent;\r\n    address heir;\r\n    uint256 expirationTime;\r\n\r\n    modifier onlyParent() {\r\n        require(msg.sender == parent);\r\n        _;\r\n    }\r\n\r\n    modifier onlyHeir() {\r\n        require(msg.sender == heir);\r\n        _;\r\n    }\r\n\r\n    modifier onlyIfExpired() {\r\n        require(now >= expirationTime);\r\n        _;\r\n    }\r\n\r\n    modifier expirationTimeNoOverflow(uint256 _daysTillExpiration) {\r\n        //For now, maximum extension allowed is 10 years\r\n        //also have to check for integer overflow\r\n        uint256 _secondsTillExpiration;\r\n        _secondsTillExpiration = convertDaysToSeconds(_daysTillExpiration);\r\n        require(_secondsTillExpiration <= 10 years && _secondsTillExpiration <= 2**256 - 1 - now);\r\n        _;\r\n    }\r\n\r\n    function convertDaysToSeconds(uint256 _timeDays) internal returns (uint256 _timeSeconds) {\r\n        _timeSeconds = _timeDays * 1 days;\r\n        return _timeSeconds;\r\n    }\r\n\r\n    function DethSwitch(address _parent, address _heir, string _contractName, uint256 _daysTillExpiration) \r\n    {\r\n    /* \r\n    _parent = wallet address of parent\r\n    _heir = wallet address of heir\r\n    _contractName = nickname of this generated contract by _parent\r\n    _timeTillExpiration = expiration time in DAYS from block.timestamp\r\n    */\r\n        parent = _parent;\r\n        heir = _heir;\r\n        contractName = _contractName;\r\n        updateExpirationTime(_daysTillExpiration);\r\n    }\r\n\r\n    function updateExpirationTime(uint256 _daysTillExpiration)\r\n        internal\r\n        expirationTimeNoOverflow(_daysTillExpiration)\r\n        returns (uint256 _expirationTime)\r\n    {\r\n        uint256 _secondsTillExpiration;\r\n        _secondsTillExpiration = convertDaysToSeconds(_daysTillExpiration);\r\n        _expirationTime = now + _secondsTillExpiration;\r\n        expirationTime = _expirationTime;\r\n        return expirationTime;\r\n    }\r\n\r\n    function extendExpirationTime(uint256 _daysTillExpiration) \r\n        onlyParent\r\n        returns (uint256 _expirationTime)\r\n    {\r\n        _expirationTime = updateExpirationTime(_daysTillExpiration);\r\n        return _expirationTime;\r\n    }\r\n\r\n    function transferThrough(address _from, address _to, uint256 _value, address _tokenAddr) internal returns (bool success) {\r\n        // Calls transferFrom at specified token address\r\n        // Should only be able to be called by withdraw after verification\r\n        ERC20Token tok = ERC20Token(_tokenAddr);\r\n        if (tok.transferFrom(_from, _to, _value)) {\r\n            return true;\r\n        } else {\r\n            return false;\r\n        }\r\n    }\r\n\r\n    function getAllowance(address _tokenAddr) constant returns (uint256 amount) {\r\n        // Find how much this DethSwitch contract is allowed to send on behalf of parent\r\n        ERC20Token tok = ERC20Token(_tokenAddr);\r\n        amount = tok.allowance(parent, address(this));\r\n        uint256 parentBalance;\r\n        parentBalance = tok.balanceOf(parent);\r\n        if (amount > parentBalance) {\r\n            amount = parentBalance;\r\n        }\r\n        return amount;\r\n    }\r\n\r\n    function withdraw(address _tokenAddr) onlyHeir onlyIfExpired returns (bool success) {\r\n        uint256 amount;\r\n        amount = getAllowance(_tokenAddr);\r\n        if (amount > 0) {\r\n            transferThrough(parent, heir, amount, _tokenAddr);\r\n        }\r\n    }\r\n\r\n    function getHeir() view returns (address _heir) {\r\n        return heir;\r\n    }\r\n\r\n    function getParent() view returns (address _parent) {\r\n        return parent;\r\n    }\r\n\r\n    function getcontractName() view returns (string _name) {\r\n        return contractName;\r\n    }\r\n\r\n    function getExpirationTime() view returns (uint256 _expiratonTime) {\r\n        return expirationTime;\r\n    }\r\n}\r\n\r\ncontract DethSwitchFactory {\r\n\r\n\r\n    mapping (address => address[]) public deployedContractsByParent;\r\n    mapping (address => address[]) public deployedContractsByHeir;\r\n\r\n    function DethSwitchFactory() {\r\n        //nothing to do\r\n    }\r\n\r\n    // Deploys new DethSwitch contract\r\n    function newDethSwitch(address _heir, string _contractName, uint _timeTillExpiration) returns (address addr) {\r\n        address newDethSwitchAddress;\r\n        newDethSwitchAddress = new DethSwitch(msg.sender, _heir, _contractName, _timeTillExpiration);\r\n        // Store contract information by owner and by heir\r\n        deployedContractsByParent[msg.sender].push(newDethSwitchAddress);\r\n        deployedContractsByHeir[_heir].push(newDethSwitchAddress);\r\n        return newDethSwitchAddress;\r\n    }\r\n\r\n    // Return number of contracts in struct array. Needed because can't return dynamic array\r\n    // Implementation feels clumsy though\r\n    function getNumberOfOwnedContracts() view returns (uint numContracts) {\r\n        return deployedContractsByParent[msg.sender].length;\r\n    }\r\n\r\n    function getNumberOfHeirContracts() view returns (uint numContracts) {\r\n        return deployedContractsByHeir[msg.sender].length;\r\n    }\r\n\r\n    function getOwnedContracts(uint256 contractIndex) view returns(address) {\r\n        require(contractIndex < deployedContractsByParent[msg.sender].length);\r\n        return deployedContractsByParent[msg.sender][contractIndex];\r\n    }\r\n\r\n    function getHeirContracts(uint256 contractIndex) view returns(address) {\r\n        require(contractIndex < deployedContractsByHeir[msg.sender].length);\r\n        return deployedContractsByHeir[msg.sender][contractIndex];\r\n    }\r\n}\r\n",
  "sourcePath": "/mnt/c/Users/howei/Desktop/Solidity/DethSwitch/contracts/DethSwitchFactory.sol",
  "compiler": {
    "name": "solc",
    "version": "0.4.18+commit.9cf6e910.Emscripten.clang"
  },
  "schemaVersion": "1.0.1",
  "updatedAt": "2017-12-08T08:16:08.054Z"
}