{
  "contractName": "DethSwitchFactory",
  "abi": [
    {
      "constant": true,
      "inputs": [
        {
          "name": "",
          "type": "address"
        },
        {
          "name": "",
          "type": "uint256"
        }
      ],
      "name": "deployedContractsByHeir",
      "outputs": [
        {
          "name": "",
          "type": "address"
        }
      ],
      "payable": false,
      "stateMutability": "view",
      "type": "function"
    },
    {
      "constant": true,
      "inputs": [],
      "name": "getNumberOfOwnedContracts",
      "outputs": [
        {
          "name": "numContracts",
          "type": "uint256"
        }
      ],
      "payable": false,
      "stateMutability": "view",
      "type": "function"
    },
    {
      "constant": true,
      "inputs": [
        {
          "name": "contractIndex",
          "type": "uint256"
        }
      ],
      "name": "getOwnedContracts",
      "outputs": [
        {
          "name": "contractAddress",
          "type": "address"
        }
      ],
      "payable": false,
      "stateMutability": "view",
      "type": "function"
    },
    {
      "constant": true,
      "inputs": [],
      "name": "getNumberOfHeirContracts",
      "outputs": [
        {
          "name": "numContracts",
          "type": "uint256"
        }
      ],
      "payable": false,
      "stateMutability": "view",
      "type": "function"
    },
    {
      "constant": true,
      "inputs": [
        {
          "name": "contractIndex",
          "type": "uint256"
        }
      ],
      "name": "getHeirContracts",
      "outputs": [
        {
          "name": "contractAddress",
          "type": "address"
        }
      ],
      "payable": false,
      "stateMutability": "view",
      "type": "function"
    },
    {
      "constant": true,
      "inputs": [
        {
          "name": "",
          "type": "address"
        },
        {
          "name": "",
          "type": "uint256"
        }
      ],
      "name": "deployedContractsByParent",
      "outputs": [
        {
          "name": "",
          "type": "address"
        }
      ],
      "payable": false,
      "stateMutability": "view",
      "type": "function"
    },
    {
      "constant": false,
      "inputs": [
        {
          "name": "_heir",
          "type": "address"
        },
        {
          "name": "_name",
          "type": "string"
        }
      ],
      "name": "newDethSwitch",
      "outputs": [
        {
          "name": "addr",
          "type": "address"
        }
      ],
      "payable": false,
      "stateMutability": "nonpayable",
      "type": "function"
    }
  ],
  "bytecode": "0x6060604052341561000f57600080fd5b6112098061001e6000396000f300606060405260043610610083576000357c0100000000000000000000000000000000000000000000000000000000900463ffffffff1680632ad24c881461008857806365aad3401461010a578063882ed0b6146101335780638a64913314610196578063b1811b8f146101bf578063cbe516a914610222578063f13da55d146102a4575b600080fd5b341561009357600080fd5b6100c8600480803573ffffffffffffffffffffffffffffffffffffffff16906020019091908035906020019091905050610360565b604051808273ffffffffffffffffffffffffffffffffffffffff1673ffffffffffffffffffffffffffffffffffffffff16815260200191505060405180910390f35b341561011557600080fd5b61011d6103ae565b6040518082815260200191505060405180910390f35b341561013e57600080fd5b61015460048080359060200190919050506103f7565b604051808273ffffffffffffffffffffffffffffffffffffffff1673ffffffffffffffffffffffffffffffffffffffff16815260200191505060405180910390f35b34156101a157600080fd5b6101a9610477565b6040518082815260200191505060405180910390f35b34156101ca57600080fd5b6101e060048080359060200190919050506104c1565b604051808273ffffffffffffffffffffffffffffffffffffffff1673ffffffffffffffffffffffffffffffffffffffff16815260200191505060405180910390f35b341561022d57600080fd5b610262600480803573ffffffffffffffffffffffffffffffffffffffff16906020019091908035906020019091905050610542565b604051808273ffffffffffffffffffffffffffffffffffffffff1673ffffffffffffffffffffffffffffffffffffffff16815260200191505060405180910390f35b34156102af57600080fd5b61031e600480803573ffffffffffffffffffffffffffffffffffffffff1690602001909190803590602001908201803590602001908080601f01602080910402602001604051908101604052809392919081815260200183838082843782019150505050505091905050610590565b604051808273ffffffffffffffffffffffffffffffffffffffff1673ffffffffffffffffffffffffffffffffffffffff16815260200191505060405180910390f35b60016020528160005260406000208181548110151561037b57fe5b90600052602060002090016000915091509054906101000a900473ffffffffffffffffffffffffffffffffffffffff1681565b60008060003373ffffffffffffffffffffffffffffffffffffffff1673ffffffffffffffffffffffffffffffffffffffff16815260200190815260200160002080549050905090565b60008060003373ffffffffffffffffffffffffffffffffffffffff1673ffffffffffffffffffffffffffffffffffffffff1681526020019081526020016000208281548110151561044457fe5b906000526020600020900160009054906101000a900473ffffffffffffffffffffffffffffffffffffffff169050919050565b6000600160003373ffffffffffffffffffffffffffffffffffffffff1673ffffffffffffffffffffffffffffffffffffffff16815260200190815260200160002080549050905090565b6000600160003373ffffffffffffffffffffffffffffffffffffffff1673ffffffffffffffffffffffffffffffffffffffff1681526020019081526020016000208281548110151561050f57fe5b906000526020600020900160009054906101000a900473ffffffffffffffffffffffffffffffffffffffff169050919050565b60006020528160005260406000208181548110151561055d57fe5b90600052602060002090016000915091509054906101000a900473ffffffffffffffffffffffffffffffffffffffff1681565b60008033848461059e6107d4565b808473ffffffffffffffffffffffffffffffffffffffff1673ffffffffffffffffffffffffffffffffffffffff1681526020018373ffffffffffffffffffffffffffffffffffffffff1673ffffffffffffffffffffffffffffffffffffffff16815260200180602001828103825283818151815260200191508051906020019080838360005b8381101561063f578082015181840152602081019050610624565b50505050905090810190601f16801561066c5780820380516001836020036101000a031916815260200191505b50945050505050604051809103906000f080151561068957600080fd5b90506000803373ffffffffffffffffffffffffffffffffffffffff1673ffffffffffffffffffffffffffffffffffffffff16815260200190815260200160002080548060010182816106db91906107e4565b9160005260206000209001600083909190916101000a81548173ffffffffffffffffffffffffffffffffffffffff021916908373ffffffffffffffffffffffffffffffffffffffff16021790555050600160008573ffffffffffffffffffffffffffffffffffffffff1673ffffffffffffffffffffffffffffffffffffffff168152602001908152602001600020805480600101828161077b91906107e4565b9160005260206000209001600083909190916101000a81548173ffffffffffffffffffffffffffffffffffffffff021916908373ffffffffffffffffffffffffffffffffffffffff160217905550508091505092915050565b6040516109a88061083683390190565b81548183558181151161080b5781836000526020600020918201910161080a9190610810565b5b505050565b61083291905b8082111561082e576000816000905550600101610816565b5090565b9056006060604052341561000f57600080fd5b6040516109a83803806109a88339810160405280805190602001909190805190602001909190805182019190505082600160000160006101000a81548173ffffffffffffffffffffffffffffffffffffffff021916908373ffffffffffffffffffffffffffffffffffffffff1602179055506000600160000160146101000a81548160ff02191690831515021790555081600260006101000a81548173ffffffffffffffffffffffffffffffffffffffff021916908373ffffffffffffffffffffffffffffffffffffffff16021790555080600090805190602001906100f69291906100ff565b505050506101a4565b828054600181600116156101000203166002900490600052602060002090601f016020900481019282601f1061014057805160ff191683800117855561016e565b8280016001018555821561016e579182015b8281111561016d578251825591602001919060010190610152565b5b50905061017b919061017f565b5090565b6101a191905b8082111561019d576000816000905550600101610185565b5090565b90565b6107f5806101b36000396000f300606060405260043610610078576000357c0100000000000000000000000000000000000000000000000000000000900463ffffffff16806317d7de7c1461007d57806341e16e7d1461010b57806351cff8d9146101605780638052474d146101b157806380f760211461023f578063eb5a662e14610294575b600080fd5b341561008857600080fd5b6100906102e1565b6040518080602001828103825283818151815260200191508051906020019080838360005b838110156100d05780820151818401526020810190506100b5565b50505050905090810190601f1680156100fd5780820380516001836020036101000a031916815260200191505b509250505060405180910390f35b341561011657600080fd5b61011e610389565b604051808273ffffffffffffffffffffffffffffffffffffffff1673ffffffffffffffffffffffffffffffffffffffff16815260200191505060405180910390f35b341561016b57600080fd5b610197600480803573ffffffffffffffffffffffffffffffffffffffff169060200190919050506103b3565b604051808215151515815260200191505060405180910390f35b34156101bc57600080fd5b6101c46104a6565b6040518080602001828103825283818151815260200191508051906020019080838360005b838110156102045780820151818401526020810190506101e9565b50505050905090810190601f1680156102315780820380516001836020036101000a031916815260200191505b509250505060405180910390f35b341561024a57600080fd5b610252610544565b604051808273ffffffffffffffffffffffffffffffffffffffff1673ffffffffffffffffffffffffffffffffffffffff16815260200191505060405180910390f35b341561029f57600080fd5b6102cb600480803573ffffffffffffffffffffffffffffffffffffffff16906020019091905050610571565b6040518082815260200191505060405180910390f35b6102e96107b5565b60008054600181600116156101000203166002900480601f01602080910402602001604051908101604052809291908181526020018280546001816001161561010002031660029004801561037f5780601f106103545761010080835404028352916020019161037f565b820191906000526020600020905b81548152906001019060200180831161036257829003601f168201915b5050505050905090565b6000600260009054906101000a900473ffffffffffffffffffffffffffffffffffffffff16905090565b600080600260009054906101000a900473ffffffffffffffffffffffffffffffffffffffff1673ffffffffffffffffffffffffffffffffffffffff163373ffffffffffffffffffffffffffffffffffffffff1614151561041257600080fd5b60001515600160000160149054906101000a900460ff16151514151561043757600080fd5b61044083610571565b905060008111156104a05761049e600160000160009054906101000a900473ffffffffffffffffffffffffffffffffffffffff16600260009054906101000a900473ffffffffffffffffffffffffffffffffffffffff168386610699565b505b50919050565b60008054600181600116156101000203166002900480601f01602080910402602001604051908101604052809291908181526020018280546001816001161561010002031660029004801561053c5780601f106105115761010080835404028352916020019161053c565b820191906000526020600020905b81548152906001019060200180831161051f57829003601f168201915b505050505081565b6000600160000160009054906101000a900473ffffffffffffffffffffffffffffffffffffffff16905090565b6000808290508073ffffffffffffffffffffffffffffffffffffffff1663dd62ed3e600160000160009054906101000a900473ffffffffffffffffffffffffffffffffffffffff16306000604051602001526040518363ffffffff167c0100000000000000000000000000000000000000000000000000000000028152600401808373ffffffffffffffffffffffffffffffffffffffff1673ffffffffffffffffffffffffffffffffffffffff1681526020018273ffffffffffffffffffffffffffffffffffffffff1673ffffffffffffffffffffffffffffffffffffffff16815260200192505050602060405180830381600087803b151561067357600080fd5b6102c65a03f1151561068457600080fd5b50505060405180519050915081915050919050565b6000808290508073ffffffffffffffffffffffffffffffffffffffff166323b872dd8787876000604051602001526040518463ffffffff167c0100000000000000000000000000000000000000000000000000000000028152600401808473ffffffffffffffffffffffffffffffffffffffff1673ffffffffffffffffffffffffffffffffffffffff1681526020018373ffffffffffffffffffffffffffffffffffffffff1673ffffffffffffffffffffffffffffffffffffffff1681526020018281526020019350505050602060405180830381600087803b151561077e57600080fd5b6102c65a03f1151561078f57600080fd5b50505060405180519050156107a757600191506107ac565b600091505b50949350505050565b6020604051908101604052806000815250905600a165627a7a723058204b46ac745161b9d7e6a123d84827ffac74d3db693e041f2eb5c1dabcd16392990029a165627a7a72305820dce58b8eb009d1a1d3893942d3b5545e772b0d9227874b8fdf9811f881ae4bb10029",
  "source": "pragma solidity ^0.4.4;\n\ncontract ERC20Token {\n    // function definition of generic ERC20 token\n    // necessary for DethSwitch to be able to reference functions in another contract\n    function transferFrom(address _from, address _to, uint _value) returns (bool success) {}\n    function allowance(address _owner, address _spender) constant returns (uint256 remaining) {}\n}\n\ncontract DethSwitch {\n    \n    // TODO: make mapping that stores token addresses, heirs and values ?\n    // TODO: make check-in feature\n    // TODO: add getters for heir, parent\n\n    // Dame of this contract instance\n    string public Name;\n\n    // Store parents and heir\n    struct Parent {\n        address addr;\n        bool alive;\n    }\n\n    Parent parent;\n    address heir;\n\n    modifier onlyParent() {\n        require(msg.sender == parent.addr);\n        _;\n    }\n\n    modifier onlyHeir() {\n        require(msg.sender == heir);\n        _;\n    }\n\n    modifier onlyIfDead() {\n        require(parent.alive == false);\n        _;\n    }\n\n\n    function DethSwitch(address _parent, address _heir, string _name) {\n    // constructor\n        parent.addr = _parent;\n        // for debugging, parent always dead\n        parent.alive = false;\n\n        heir = _heir;\n        Name = _name;\n    }\n\n    function transferThrough(address _from, address _to, uint256 _value, address _tokenAddr) internal returns (bool success) {\n        // Calls transferFrom at specified token address\n        // Should only be able to be called by withdraw after verification\n        ERC20Token tok = ERC20Token(_tokenAddr);\n        if (tok.transferFrom(_from, _to, _value)) {\n            return true;\n        }\n        else {\n            return false;\n        }\n    }\n\n    function getAllowance(address _tokenAddr) constant returns (uint256 amount) {\n        // Find how much this DethSwitch contract is allowed to send on behalf of parent\n        ERC20Token tok = ERC20Token(_tokenAddr);\n        amount = tok.allowance(parent.addr, address(this));\n        return amount;\n    }\n\n    function withdraw(address _tokenAddr) onlyHeir onlyIfDead returns (bool success) {\n        uint256 amount;\n        amount = getAllowance(_tokenAddr);\n        if (amount > 0) {\n            transferThrough(parent.addr, heir, amount, _tokenAddr);\n        }\n    }\n\n    function getHeir() view returns (address _heir) {\n        return heir;\n    }\n\n    function getParent() view returns (address _parent) {\n        return parent.addr;\n    }\n\n    function getName() view returns (string _name) {\n        return Name;\n    }\n\n}\n\ncontract DethSwitchFactory {\n\n\n    mapping (address => address[]) public deployedContractsByParent;\n    mapping (address => address[]) public deployedContractsByHeir;\n\n    // Deploys new DethSwitch contract\n    function newDethSwitch(address _heir, string _name) returns (address addr) {\n        address newDethSwitchAddress;\n        newDethSwitchAddress = new DethSwitch(msg.sender, _heir, _name);\n        // Store contract information by owner and by heir\n        deployedContractsByParent[msg.sender].push(newDethSwitchAddress);\n        deployedContractsByHeir[_heir].push(newDethSwitchAddress);\n        return newDethSwitchAddress;\n    }\n\n    // Return number of contracts in struct array. Needed because can't return dynamic array\n    // Implementation feels clumsy though\n    function getNumberOfOwnedContracts() view returns (uint256 numContracts) {\n        return deployedContractsByParent[msg.sender].length;\n    }\n\n    function getNumberOfHeirContracts() view returns (uint256 numContracts) {\n        return deployedContractsByHeir[msg.sender].length;\n    }\n\n    function getOwnedContracts(uint256 contractIndex) view returns(address contractAddress) {\n        return deployedContractsByParent[msg.sender][contractIndex];\n    }\n\n    function getHeirContracts(uint256 contractIndex) view returns(address contractAddress) {\n        return deployedContractsByHeir[msg.sender][contractIndex];\n    }\n\n}\n",
  "sourcePath": "/Users/isaacpatka/Documents/Consulting/Hackathon/DethSwitch/contracts/DethSwitchFactory.sol",
  "compiler": {
    "name": "solc",
    "version": "0.4.18+commit.9cf6e910.Emscripten.clang"
  },
  "schemaVersion": "1.0.1",
  "updatedAt": "2017-12-06T06:16:29.783Z"
}