{
  "contractName": "ERC20Token",
  "abi": [
    {
      "constant": false,
      "inputs": [
        {
          "name": "_from",
          "type": "address"
        },
        {
          "name": "_to",
          "type": "address"
        },
        {
          "name": "_value",
          "type": "uint256"
        }
      ],
      "name": "transferFrom",
      "outputs": [
        {
          "name": "success",
          "type": "bool"
        }
      ],
      "payable": false,
      "stateMutability": "nonpayable",
      "type": "function"
    },
    {
      "constant": true,
      "inputs": [
        {
          "name": "_owner",
          "type": "address"
        },
        {
          "name": "_spender",
          "type": "address"
        }
      ],
      "name": "balanceOf",
      "outputs": [
        {
          "name": "balance",
          "type": "uint256"
        }
      ],
      "payable": false,
      "stateMutability": "view",
      "type": "function"
    },
    {
      "constant": true,
      "inputs": [
        {
          "name": "_owner",
          "type": "address"
        },
        {
          "name": "_spender",
          "type": "address"
        }
      ],
      "name": "allowance",
      "outputs": [
        {
          "name": "remaining",
          "type": "uint256"
        }
      ],
      "payable": false,
      "stateMutability": "view",
      "type": "function"
    }
  ],
  "bytecode": "0x6060604052341561000f57600080fd5b6101d28061001e6000396000f300606060405260043610610057576000357c0100000000000000000000000000000000000000000000000000000000900463ffffffff16806323b872dd1461005c57806370a08231146100d5578063dd62ed3e14610122575b600080fd5b341561006757600080fd5b6100bb600480803573ffffffffffffffffffffffffffffffffffffffff1690602001909190803573ffffffffffffffffffffffffffffffffffffffff1690602001909190803590602001909190505061018e565b604051808215151515815260200191505060405180910390f35b34156100e057600080fd5b61010c600480803573ffffffffffffffffffffffffffffffffffffffff16906020019091905050610197565b6040518082815260200191505060405180910390f35b341561012d57600080fd5b610178600480803573ffffffffffffffffffffffffffffffffffffffff1690602001909190803573ffffffffffffffffffffffffffffffffffffffff1690602001909190505061019e565b6040518082815260200191505060405180910390f35b60009392505050565b6000919050565b6000929150505600a165627a7a72305820b9372f9a525b570d2ac6772eb43b3075b8617d202da6255876d0368b1f28a9440029",
  "source": "pragma solidity ^0.4.4;\n\ncontract ERC20Token {\n    // function definition of generic ERC20 token\n    // necessary for DethSwitch to be able to reference functions in another contract\n    function transferFrom(address _from, address _to, uint _value) returns (bool success) {}\n    function allowance(address _owner, address _spender) constant returns (uint256 remaining) {}\n    function balanceOf(address _owner) constant returns (uint256 balance) {}\n}\n\ncontract DethSwitch {\n    \n    // TODO: make mapping that stores token addresses, heirs and values ?\n    // TODO: make check-in feature\n    // TODO: add getters for heir, parent\n\n    // Dame of this contract instance\n    string public contractName;\n\n    address parent;\n    address heir;\n    uint256 expirationTime;\n\n    modifier onlyParent() {\n        require(msg.sender == parent);\n        _;\n    }\n\n    modifier onlyHeir() {\n        require(msg.sender == heir);\n        _;\n    }\n\n    modifier onlyIfExpired() {\n        require(now >= expirationTime);\n        _;\n    }\n\n    modifier expirationTimeNoOverflow(uint256 _daysTillExpiration) {\n        //For now, maximum extension allowed is 10 years\n        //also have to check for integer overflow\n        uint256 _secondsTillExpiration;\n        _secondsTillExpiration = convertDaysToSeconds(_daysTillExpiration);\n        require(_secondsTillExpiration <= 10 years && _secondsTillExpiration <= 2**256 - 1 - now);\n        _;\n    }\n\n    function convertDaysToSeconds(uint256 _timeDays) internal returns (uint256 _timeSeconds) {\n        _timeSeconds = _timeDays * 1 days;\n        return _timeSeconds;\n    }\n\n    function DethSwitch(address _parent, address _heir, string _contractName, uint256 _daysTillExpiration) \n    {\n    /* \n    _parent = wallet address of parent\n    _heir = wallet address of heir\n    _contractName = nickname of this generated contract by _parent\n    _timeTillExpiration = expiration time in DAYS from block.timestamp\n    */\n        parent = _parent;\n        heir = _heir;\n        contractName = _contractName;\n        updateExpirationTime(_daysTillExpiration);\n    }\n\n    function updateExpirationTime(uint256 _daysTillExpiration)\n        internal\n        expirationTimeNoOverflow(_daysTillExpiration)\n        returns (uint256 _expirationTime)\n    {\n        uint256 _secondsTillExpiration;\n        _secondsTillExpiration = convertDaysToSeconds(_daysTillExpiration);\n        _expirationTime = now + _secondsTillExpiration;\n        expirationTime = _expirationTime;\n        return expirationTime;\n    }\n\n    function extendExpirationTime(uint256 _daysTillExpiration) \n        onlyParent\n        returns (uint256 _expirationTime)\n    {\n        _expirationTime = updateExpirationTime(_daysTillExpiration);\n        return _expirationTime;\n    }\n\n    function transferThrough(address _from, address _to, uint256 _value, address _tokenAddr) internal returns (bool success) {\n        // Calls transferFrom at specified token address\n        // Should only be able to be called by withdraw after verification\n        ERC20Token tok = ERC20Token(_tokenAddr);\n        if (tok.transferFrom(_from, _to, _value)) {\n            return true;\n        } else {\n            return false;\n        }\n    }\n\n    function getAllowance(address _tokenAddr) constant returns (uint256 amount) {\n        // Find how much this DethSwitch contract is allowed to send on behalf of parent\n        ERC20Token tok = ERC20Token(_tokenAddr);\n        amount = tok.allowance(parent, address(this));\n        uint256 parentBalance;\n        parentBalance = tok.balanceOf(parent);\n        if (amount > parentBalance) {\n            amount = parentBalance;\n        }\n        return amount;\n    }\n\n    function withdraw(address _tokenAddr) onlyHeir onlyIfExpired returns (bool success) {\n        uint256 amount;\n        amount = getAllowance(_tokenAddr);\n        if (amount > 0) {\n            transferThrough(parent, heir, amount, _tokenAddr);\n        }\n    }\n\n    function getHeir() view returns (address _heir) {\n        return heir;\n    }\n\n    function getParent() view returns (address _parent) {\n        return parent;\n    }\n\n    function getcontractName() view returns (string _name) {\n        return contractName;\n    }\n\n    function getExpirationTime() view returns (uint256 _expiratonTime) {\n        return expirationTime;\n    }\n}\n\ncontract DethSwitchFactory {\n\n\n    mapping (address => address[]) public deployedContractsByParent;\n    mapping (address => address[]) public deployedContractsByHeir;\n\n    function DethSwitchFactory() {\n        //nothing to do\n    }\n\n    // Deploys new DethSwitch contract\n    function newDethSwitch(address _heir, string _contractName, uint _timeTillExpiration) returns (address addr) {\n        address newDethSwitchAddress;\n        newDethSwitchAddress = new DethSwitch(msg.sender, _heir, _contractName, _timeTillExpiration);\n        // Store contract information by owner and by heir\n        deployedContractsByParent[msg.sender].push(newDethSwitchAddress);\n        deployedContractsByHeir[_heir].push(newDethSwitchAddress);\n        return newDethSwitchAddress;\n    }\n\n    // Return number of contracts in struct array. Needed because can't return dynamic array\n    // Implementation feels clumsy though\n    function getNumberOfOwnedContracts() view returns (uint numContracts) {\n        return deployedContractsByParent[msg.sender].length;\n    }\n\n    function getNumberOfHeirContracts() view returns (uint numContracts) {\n        return deployedContractsByHeir[msg.sender].length;\n    }\n\n    function getOwnedContracts(uint256 contractIndex) view returns(address) {\n        require(contractIndex < deployedContractsByParent[msg.sender].length);\n        return deployedContractsByParent[msg.sender][contractIndex];\n    }\n\n    function getHeirContracts(uint256 contractIndex) view returns(address) {\n        require(contractIndex < deployedContractsByHeir[msg.sender].length);\n        return deployedContractsByHeir[msg.sender][contractIndex];\n    }\n}\n",
  "sourcePath": "/Users/isaacpatka/Documents/Consulting/Hackathon/DethSwitch/contracts/DethSwitchFactory.sol",
  "compiler": {
    "name": "solc",
    "version": "0.4.18+commit.9cf6e910.Emscripten.clang"
  },
  "schemaVersion": "1.0.1",
  "updatedAt": "2017-12-07T06:18:07.830Z"
}