{
  "contractName": "ERC20Token",
  "abi": [
    {
      "constant": false,
      "inputs": [
        {
          "name": "_from",
          "type": "address"
        },
        {
          "name": "_to",
          "type": "address"
        },
        {
          "name": "_value",
          "type": "uint256"
        }
      ],
      "name": "transferFrom",
      "outputs": [
        {
          "name": "success",
          "type": "bool"
        }
      ],
      "payable": false,
      "stateMutability": "nonpayable",
      "type": "function"
    },
    {
      "constant": true,
      "inputs": [
        {
          "name": "_owner",
          "type": "address"
        },
        {
          "name": "_spender",
          "type": "address"
        }
      ],
      "name": "allowance",
      "outputs": [
        {
          "name": "remaining",
          "type": "uint256"
        }
      ],
      "payable": false,
      "stateMutability": "view",
      "type": "function"
    }
  ],
  "bytecode": "0x6060604052341561000f57600080fd5b6101738061001e6000396000f30060606040526004361061004c576000357c0100000000000000000000000000000000000000000000000000000000900463ffffffff16806323b872dd14610051578063dd62ed3e146100ca575b600080fd5b341561005c57600080fd5b6100b0600480803573ffffffffffffffffffffffffffffffffffffffff1690602001909190803573ffffffffffffffffffffffffffffffffffffffff16906020019091908035906020019091905050610136565b604051808215151515815260200191505060405180910390f35b34156100d557600080fd5b610120600480803573ffffffffffffffffffffffffffffffffffffffff1690602001909190803573ffffffffffffffffffffffffffffffffffffffff1690602001909190505061013f565b6040518082815260200191505060405180910390f35b60009392505050565b6000929150505600a165627a7a72305820ed301d4da73fab835b2a479b2c030dd37637763782ff94cf95191cf8cf8cbde60029",
  "source": "pragma solidity ^0.4.4;\n\ncontract ERC20Token {\n    // function definition of generic ERC20 token\n    // necessary for DethSwitch to be able to reference functions in another contract\n    function transferFrom(address _from, address _to, uint _value) returns (bool success) {}\n    function allowance(address _owner, address _spender) constant returns (uint256 remaining) {}\n}\n\ncontract DethSwitch {\n    \n    // TODO: make mapping that stores token addresses, heirs and values ?\n    // TODO: make check-in feature\n    // TODO: add getters for heir, parent\n\n    // Dame of this contract instance\n    string public Name;\n\n    // Store parents and heir\n    struct Parent {\n        address addr;\n        bool alive;\n    }\n\n    Parent parent;\n    address heir;\n\n    modifier onlyParent() {\n        require(msg.sender == parent.addr);\n        _;\n    }\n\n    modifier onlyHeir() {\n        require(msg.sender == heir);\n        _;\n    }\n\n    modifier onlyIfDead() {\n        require(parent.alive == false);\n        _;\n    }\n\n\n    function DethSwitch(address _parent, address _heir, string _name) {\n    // constructor\n        parent.addr = _parent;\n        // for debugging, parent always dead\n        parent.alive = false;\n\n        heir = _heir;\n        Name = _name;\n    }\n\n    function transferThrough(address _from, address _to, uint256 _value, address _tokenAddr) internal returns (bool success) {\n        // Calls transferFrom at specified token address\n        // Should only be able to be called by withdraw after verification\n        ERC20Token tok = ERC20Token(_tokenAddr);\n        if (tok.transferFrom(_from, _to, _value)) {\n            return true;\n        }\n        else {\n            return false;\n        }\n    }\n\n    function getAllowance(address _tokenAddr) constant returns (uint256 amount) {\n        // Find how much this DethSwitch contract is allowed to send on behalf of parent\n        ERC20Token tok = ERC20Token(_tokenAddr);\n        amount = tok.allowance(parent.addr, address(this));\n        return amount;\n    }\n\n    function withdraw(address _tokenAddr) onlyHeir onlyIfDead returns (bool success) {\n        uint256 amount;\n        amount = getAllowance(_tokenAddr);\n        if (amount > 0) {\n            transferThrough(parent.addr, heir, amount, _tokenAddr);\n        }\n    }\n\n    function getHeir() view returns (address _heir) {\n        return heir;\n    }\n\n    function getParent() view returns (address _parent) {\n        return parent.addr;\n    }\n\n    function getName() view returns (string _name) {\n        return Name;\n    }\n\n}\n\ncontract DethSwitchFactory {\n\n\n    mapping (address => address[]) public deployedContractsByParent;\n    mapping (address => address[]) public deployedContractsByHeir;\n\n    // Deploys new DethSwitch contract\n    function newDethSwitch(address _heir, string _name) returns (address addr) {\n        address newDethSwitchAddress;\n        newDethSwitchAddress = new DethSwitch(msg.sender, _heir, _name);\n        // Store contract information by owner and by heir\n        deployedContractsByParent[msg.sender].push(newDethSwitchAddress);\n        deployedContractsByHeir[_heir].push(newDethSwitchAddress);\n        return newDethSwitchAddress;\n    }\n\n    // Return number of contracts in struct array. Needed because can't return dynamic array\n    // Implementation feels clumsy though\n    function getNumberOfOwnedContracts() view returns (uint256 numContracts) {\n        return deployedContractsByParent[msg.sender].length;\n    }\n\n    function getNumberOfHeirContracts() view returns (uint256 numContracts) {\n        return deployedContractsByHeir[msg.sender].length;\n    }\n\n    function getOwnedContracts(uint256 contractIndex) view returns(address contractAddress) {\n        return deployedContractsByParent[msg.sender][contractIndex];\n    }\n\n    function getHeirContracts(uint256 contractIndex) view returns(address contractAddress) {\n        return deployedContractsByHeir[msg.sender][contractIndex];\n    }\n\n}\n",
  "sourcePath": "/Users/isaacpatka/Documents/Consulting/Hackathon/DethSwitch/contracts/DethSwitchFactory.sol",
  "compiler": {
    "name": "solc",
    "version": "0.4.18+commit.9cf6e910.Emscripten.clang"
  },
  "schemaVersion": "1.0.1",
  "updatedAt": "2017-12-06T06:16:24.035Z"
}