{
  "contractName": "ERC20Token",
  "abi": [
    {
      "constant": false,
      "inputs": [
        {
          "name": "_from",
          "type": "address"
        },
        {
          "name": "_to",
          "type": "address"
        },
        {
          "name": "_value",
          "type": "uint256"
        }
      ],
      "name": "transferFrom",
      "outputs": [
        {
          "name": "success",
          "type": "bool"
        }
      ],
      "payable": false,
      "stateMutability": "nonpayable",
      "type": "function"
    },
    {
      "constant": true,
      "inputs": [
        {
          "name": "_owner",
          "type": "address"
        },
        {
          "name": "_spender",
          "type": "address"
        }
      ],
      "name": "allowance",
      "outputs": [
        {
          "name": "remaining",
          "type": "uint256"
        }
      ],
      "payable": false,
      "stateMutability": "view",
      "type": "function"
    }
  ],
  "bytecode": "0x6060604052341561000f57600080fd5b6101738061001e6000396000f30060606040526004361061004c576000357c0100000000000000000000000000000000000000000000000000000000900463ffffffff16806323b872dd14610051578063dd62ed3e146100ca575b600080fd5b341561005c57600080fd5b6100b0600480803573ffffffffffffffffffffffffffffffffffffffff1690602001909190803573ffffffffffffffffffffffffffffffffffffffff16906020019091908035906020019091905050610136565b604051808215151515815260200191505060405180910390f35b34156100d557600080fd5b610120600480803573ffffffffffffffffffffffffffffffffffffffff1690602001909190803573ffffffffffffffffffffffffffffffffffffffff1690602001909190505061013f565b6040518082815260200191505060405180910390f35b60009392505050565b6000929150505600a165627a7a7230582055044c154dfd1c4b14582cb5b5240a41efaef82491aab1f83308062fbd618ac50029",
  "source": "pragma solidity ^0.4.4;\r\n\r\ncontract ERC20Token {\r\n    // function definition of generic ERC20 token\r\n    // necessary for DethSwitch to be able to reference functions in another contract\r\n    function transferFrom(address _from, address _to, uint _value) returns (bool success) {}\r\n    function allowance(address _owner, address _spender) constant returns (uint256 remaining) {}\r\n}\r\n\r\ncontract DethSwitch {\r\n    \r\n    // TODO: make mapping that stores token addresses, heirs and values ?\r\n    // TODO: make check-in feature\r\n    // TODO: add getters for heir, parent\r\n\r\n    // Dame of this contract instance\r\n    string public contractName;\r\n\r\n    address parent;\r\n    address heir;\r\n    uint256 expirationTime;\r\n\r\n    modifier onlyParent() {\r\n        require(msg.sender == parent);\r\n        _;\r\n    }\r\n\r\n    modifier onlyHeir() {\r\n        require(msg.sender == heir);\r\n        _;\r\n    }\r\n\r\n    modifier onlyIfExpirationTimeExceeded() {\r\n        require(now >= expirationTime);\r\n        _;\r\n    }\r\n\r\n    modifier expirationTimeNoOverflow(uint256 _timeTillExpiration) {\r\n        //For now, maximum extension allowed is 10 years\r\n        //also have to check for integer overflow\r\n        require(_timeTillExpiration <= 10 years && _timeTillExpiration <= 2**256 - 1 - now);\r\n        _;\r\n    }\r\n\r\n    modifier convertTimeToSeconds(uint256 _time) {\r\n        _time *= 1 days;\r\n        _;\r\n    }\r\n\r\n    function DethSwitch(address _parent, address _heir, string _contractName, uint256 _timeTillExpiration) \r\n    convertTimeToSeconds(_timeTillExpiration)\r\n    {\r\n    /* \r\n    _parent = wallet address of parent\r\n    _heir = wallet address of heir\r\n    _contractName = nickname of this generated contract by _parent\r\n    _timeTillExpiration = expiration time in DAYS from block.timestamp\r\n    */\r\n        parent = _parent;\r\n        heir = _heir;\r\n        contractName = _contractName;\r\n        expirationTime = extendExpirationTime(_timeTillExpiration);\r\n    }\r\n\r\n    function extendExpirationTime(uint256 _timeTillExpiration) \r\n        internal\r\n        convertTimeToSeconds(_timeTillExpiration)\r\n        expirationTimeNoOverflow(_timeTillExpiration)\r\n        returns (uint256 _expirationTime)\r\n    {\r\n        expirationTime = now + _timeTillExpiration;\r\n        return expirationTime;\r\n    }\r\n\r\n    function extendExpirationTimeByParent(uint _timeTillExpiration) onlyParent returns (uint256 _expirationTime) {\r\n        //_timeTillExpiration will be converted to seconds by function modifier in extendExpirationTime()\r\n        expirationTime = extendExpirationTime(_timeTillExpiration);\r\n        return expirationTime;\r\n    }\r\n\r\n    function transferThrough(address _from, address _to, uint256 _value, address _tokenAddr) internal returns (bool success) {\r\n        // Calls transferFrom at specified token address\r\n        // Should only be able to be called by withdraw after verification\r\n        ERC20Token tok = ERC20Token(_tokenAddr);\r\n        if (tok.transferFrom(_from, _to, _value)) {\r\n            return true;\r\n        } else {\r\n            return false;\r\n        }\r\n    }\r\n\r\n    function getAllowance(address _tokenAddr) constant returns (uint256 amount) {\r\n        // Find how much this DethSwitch contract is allowed to send on behalf of parent\r\n        ERC20Token tok = ERC20Token(_tokenAddr);\r\n        amount = tok.allowance(parent, address(this));\r\n        return amount;\r\n    }\r\n\r\n    function withdraw(address _tokenAddr) onlyHeir onlyIfExpirationTimeExceeded returns (bool success) {\r\n        uint256 amount;\r\n        amount = getAllowance(_tokenAddr);\r\n        if (amount > 0) {\r\n            transferThrough(parent, heir, amount, _tokenAddr);\r\n        }\r\n    }\r\n\r\n    function getHeir() view returns (address _heir) {\r\n        return heir;\r\n    }\r\n\r\n    function getParent() view returns (address _parent) {\r\n        return parent;\r\n    }\r\n\r\n    function getcontractName() view returns (string _name) {\r\n        return contractName;\r\n    }\r\n\r\n    function getExpirationTime() view returns (uint256 _expiratonTime) {\r\n        return expirationTime;\r\n    }\r\n}\r\n\r\ncontract DethSwitchFactory {\r\n\r\n\r\n    mapping (address => address[]) public deployedContractsByParent;\r\n    mapping (address => address[]) public deployedContractsByHeir;\r\n\r\n    // Deploys new DethSwitch contract\r\n    function newDethSwitch(address _heir, string _contractName, uint _timeTillExpiration) returns (address addr) {\r\n        address newDethSwitchAddress;\r\n        newDethSwitchAddress = new DethSwitch(msg.sender, _heir, _contractName, _timeTillExpiration);\r\n        // Store contract information by owner and by heir\r\n        deployedContractsByParent[msg.sender].push(newDethSwitchAddress);\r\n        deployedContractsByHeir[_heir].push(newDethSwitchAddress);\r\n        return newDethSwitchAddress;\r\n    }\r\n\r\n    // Return number of contracts in struct array. Needed because can't return dynamic array\r\n    // Implementation feels clumsy though\r\n    function getNumberOfOwnedContracts() view returns (uint256 numContracts) {\r\n        return deployedContractsByParent[msg.sender].length;\r\n    }\r\n\r\n    function getNumberOfHeirContracts() view returns (uint256 numContracts) {\r\n        return deployedContractsByHeir[msg.sender].length;\r\n    }\r\n\r\n    function getOwnedContracts(uint256 contractIndex) view returns(address contractAddress) {\r\n        require(contractIndex < deployedContractsByParent[msg.sender].length);\r\n        return deployedContractsByParent[msg.sender][contractIndex];\r\n    }\r\n\r\n    function getHeirContracts(uint256 contractIndex) view returns(address contractAddress) {\r\n        require(contractIndex < deployedContractsByHeir[msg.sender].length);\r\n        return deployedContractsByHeir[msg.sender][contractIndex];\r\n    }\r\n\r\n}\r\n",
  "sourcePath": "/mnt/c/Users/howei/Desktop/Solidity/DethSwitch/contracts/DethSwitchFactory.sol",
  "compiler": {
    "name": "solc",
    "version": "0.4.18+commit.9cf6e910.Emscripten.clang"
  },
  "schemaVersion": "1.0.1",
  "updatedAt": "2017-12-06T16:57:40.309Z"
}